:1000000017C018952DC0189545C018950000000020
:1000100000000000000000000000000000000000E0
:1000200000000000000000000000000000000000D0
:100030008FEF8ABB87E087BB88BB8BB78064806803
:100040008BBF929A939A78942FE734E84EE121502F
:1000500030404040E1F788B371E0872788BBF4CF98
:100060000FB60F922F933F934F937F938F9388B345
:1000700092E0892788BB2FE286EE92E021508040F3
:100080009040E1F78F917F914F913F912F910F9089
:100090000FBE18950FB60F922F933F934F937F93F8
:1000A0008F9380E18BBB95E0A8E08BB3807F892B99
:1000B00080628BBB20E22150F1F78BB38F7D8BBB2D
:1000C0002AE42150F1F78BB3807F8A2B80628BBBAF
:1000D00020E2215081F78BB38F7D8BBB2AE4215026
:1000E00081F788B394E0892788BB2FE236EE42E09F
:1000F000215030404040E1F78F917F914F913F91E7
:080100002F910F900FBE18951E
:00000001FF
