:100000000C942A000C9434000C9434000C943400AA
:100010000C9434000C9434000C9434000C94340090
:100020000C9434000C9434000C9434000C94340080
:100030000C9434000C9434000C9434000C94340070
:100040000C9434000C9434000C9434000C94340060
:100050000C94340011241FBECFE5D4E0DEBFCDBF29
:100060000E9436000C944E000C9400008FEF87BB6A
:1000700081E088BB2FEF34E39CE02150304090407A
:10008000E1F700C0000018BA2FEF34E39CE02150E4
:1000900030409040E1F700C00000EBCFF894FFCF74
:00000001FF
