:100000000C942A000C943F000C943F000C943F0089
:100010000C943F000C943F000C943F000C943F0064
:100020000C943F000C943F000C943F000C943F0054
:100030000C943F000C943F000C943F000C943F0044
:100040000C943F000C943F000C943F000C943F0034
:100050000C943F0011241FBECFE5D4E0DEBFCDBF1E
:1000600010E0A0E6B0E0E6E6F3E002C005900D92F5
:10007000A438B107D9F70E94FA000C94B1010C948E
:100080000000959A85E38A95F1F700009598089508
:1000900092B3907F92BB92B382958F70892B82BB73
:1000A0000C944100CF93C82F949A0E9448008C2F43
:1000B0008295807F0E9448008AE78A95F1F700C008
:1000C000CF910895CF93C82F94980E9448008C2F09
:1000D0008295807F0E94480080E78A95F1F7CF9152
:1000E000089581E00E9462008FE99FE00197F1F797
:1000F00000C00000089581B38F6381BB82B3807C10
:1001000082BB8FE295E70197F1F700C0000080E322
:100110000E9448008FE097E20197F1F700C00000CD
:100120000E9441008FEC97E00197F1F700C00000BA
:100130000E9441008FEC97E00197F1F700C00000AA
:1001400080E20E9448008FE097E20197F1F700C03B
:10015000000088E20E9462008CE00E94620086E05B
:100160000E9462000C94710082E00E9462008FE99C
:100170009FE00197F1F700C000000895623061F040
:1001800018F4613031F00895633041F0643041F08B
:10019000089580580C9462008054FCCF8057FACFA9
:1001A0008053F8CF0F931F93CF93DF938B0128E0F9
:1001B000829FC001112480640E946200E801085FF0
:1001C0001F4F89910E945200C017D107D1F780E8D4
:1001D000DF91CF911F910F910C946200CF93DF9329
:1001E000EC018991811103C0DF91CF9108950E94A4
:1001F0005200F7CFCF93DF93CDB7DEB76C970FB632
:10020000F894DEBF0FBECDBF0E947B0081E087BBAC
:1002100088E0E0E6F0E0DE01519601900D928A95CB
:10022000E1F788E0E8E6F0E0DE01199601900D9232
:100230008A95E1F788E0E0E7F0E0DE0111960190B1
:100240000D928A95E1F7BE016F5E7F4F81E00E94BB
:10025000D200BE01675F7F4F82E00E94D200BE01E4
:100260006F5F7F4F83E00E94D2008CE790E00E9496
:10027000EE0088E80E9462008EE70E9452008AE841
:100280000E94620081E00E94520080EC0E946200A5
:1002900084E50E9452002FEF84E39CE021508040CF
:1002A0009040E1F700C0000085E60E9452002FEF69
:1002B00084E39CE0215080409040E1F700C00000C2
:1002C00083E70E9452002FEF84E39CE0215080409E
:1002D0009040E1F700C0000084E70E94520080E2F5
:1002E0000E9452002FEF84E39CE021508040904018
:1002F000E1F700C0000082E00E9452008091780087
:1003000090917900A0917A00B0917B00898F9A8FAB
:10031000AB8FBC8FF12C00E010E087EC0E946200F4
:1003200068012FEFC21AD20A03701127E9E1F0E049
:10033000EC0FFD1FE00FF11F80810E9452008F2DF6
:10034000817088BB8FEF97E823E181509040204077
:10035000E1F700C00000F3948F2D8170F82E860124
:06036000DCCFF894FFCF92
:1003660015151F0A0A1F1515000A000400110E00B4
:1003760020100804020100002D037C2F77656174AC
:040386006865720034
:00000001FF
